:1000000012C02CC02BC034C329C028C027C026C0B2
:1000100025C024C023C04AC2F7C2CFC28FC31EC0AE
:100020001DC01CC01BC011241FBECFE5D4E0DEBF25
:10003000CDBF10E0A0E6B0E0E6EBFBE002C005902B
:100040000D92A236B107D9F722E0A2E6B0E001C0D6
:100050001D92AF37B207E1F769D4ABC5D1CFCF93CB
:10006000DF936115710539F1DC01680F791F8FEF9E
:100070009FEF2D91C92FDD278227AC01552728E05E
:1000800030E080E090E0FC01E427F5279695879525
:10009000E0FF04C0E1E08E27E0EA9E2756954795F1
:1000A0002150310981F78C279D27A617B70709F73B
:1000B000DF91CF9108958FEF9FEFFACF833071F0EA
:1000C000863061F0803199F083E080936A008FEF91
:1000D00090E090936D0080936C00089527E030E0ED
:1000E00030936D0020936C0080936E0208952091F0
:1000F0007400309175003227232732272C5F3F4F41
:10010000220F331F30936D0020936C0080936E029A
:100110000895CF93DF93CAE6D0E0998190936F0161
:100120008068809370016093710163E070E08FE6F6
:1001300091E095DF809372019093730185E090E0E8
:100140009D838C8384E08883F894109261001092E0
:10015000600024E630E030936900209368009AEF55
:1001600093BD14BC85BD89B7806889BF7894DF9141
:10017000CF910895EF92FF920F931F93CF93DF9348
:1001800000916C0010916D00E8012197BE0180E79D
:1001900090E065DFAC015527C659DF4F2E8130E076
:1001A00042175307D9F0929886E090E090936D0043
:1001B00080936C0081E080936B0010926A00109233
:1001C0007602109275021092780210927702DF91F7
:1001D000CF911F910F91FF90EF900895892F99274C
:1001E000F801E659FF4F268130E082179307D9F6D0
:1001F00080916E02833009F4C8C0863009F46EC065
:10020000803129F7A0917200B0917300BA27AB2713
:10021000BA27E091720070917300209174003091C0
:100220007500322723273227609174009091750062
:10023000A9014A0F5B1F415051094330510508F095
:1002400024C140916B0040936F0180937001E09353
:100250007101709372016093730190937401211581
:100260003105B1F0EAE6F0E0AA0FBB1FA159BD4F7E
:10027000220F331F26593F4F858590E0982F8827FE
:100280004685842B8D939D933296E217F307A1F751
:1002900066E070E08FE691E0E2DE80937501909376
:1002A000760188E090E090936F0080936E0084E088
:1002B00080936A00F894109261001092600024E626
:1002C00030E030936900209368009AEF93BD14BC2E
:1002D00085BD89B7806889BF789479CF20917200F5
:1002E000309173003227232732274091720090917A
:1002F00073002330310508F0C2C060917400509142
:100300007500220F331FF901E159FD4F2091740050
:1003100030917500322723273227318320832091A3
:100320006B0020936F018093700140937101909353
:100330007201609373015093740166E070E08FE680
:1003400091E08DDE809375019093760188E090E0D6
:1003500090936F0080936E0084E080936A00F8941D
:10036000109261001092600024E630E03093690042
:10037000209368009AEF93BD14BC85BD89B780684F
:1003800089BF789480916E023BCFE0917200F0912A
:100390007300FE27EF27FE276091740070917500AF
:1003A0007627672776279F01260F371F21503109AF
:1003B0002330310508F05DC090916B0090936F0180
:1003C00080937001862F880F8093710161157105EC
:1003D00009F464C0EE0FFF1FE159FD4FA2E7B1E041
:1003E000EB01CC57DF4FCC0FDD1F9E0126593F4F4D
:1003F0008081918132969C9311968C9311971296DD
:100400002A173B07A9F77E0185E0E81A81E0F80A80
:100410008E0104501140C350D140660F771F6D5FAD
:100420007F4F8FE691E01BDEF701E159FE4F80839D
:10043000F801E159FE4F9083D0936F00C0936E0096
:1004400084E080936A00F89410926100109260003A
:1004500024E630E030936900209368009AEF93BD62
:1004600014BC85BD89B7806889BF789480916E027D
:10047000C4CE62E083E04DDE80916E02BECE62E0CB
:1004800086E047DE80916E02BBCE62E080E1DF91C4
:10049000CF911F910F91FF90EF903BCEC5E0D0E040
:1004A00004E010E0F3E0EF2EF12CB7CF1F920F9293
:1004B0000FB60F9211242F933F934F935F936F9337
:1004C0007F938F939F93AF93BF93EF93FF93F89492
:1004D0002CB18091750290917602FC01E659FF4F94
:1004E000268314BC20916A00211147C00097E1F4D3
:1004F000F894109261001092600081E090E0909377
:100500006900809368008AEF83BD14BC84E085BDD8
:1005100089B7806889BF789420916A0080917502BC
:1005200090917602211129C086309105A1F18F3F6B
:10053000910528F401969093760280937502789441
:10054000FF91EF91BF91AF919F918F917F916F91AB
:100550005F914F913F912F910F900FBE0F901F9081
:10056000189581E080936A0080917100A7DD209149
:100570006A0080917502909176022130C1F6209137
:100580006C0030916D008217930789F615BC22E04C
:1005900020936A00CCCF20916B00222321F0309170
:1005A00070002317F1F223E020936A002FEF30E070
:1005B00030936D0020936C00BDCF1F920F920FB649
:1005C0000F9211248F939F93EF93FF93F894569873
:1005D0009298EAE6F0E086E090E09383828381E0FF
:1005E0008183108210927602109275021092780226
:1005F000109277027894FF91EF919F918F910F90D5
:100600000FBE0F901F9018951F920F920FB60F926A
:1006100011242F933F938F939F93EF93FF93F8941D
:10062000809177029091780220916E0030916F0056
:1006300021503109FC01E159FE4F8217930799F0CF
:1006400020812CB901969093780280937702789458
:10065000FF91EF919F918F913F912F910F900FBE3E
:100660000F901F90189580818CB95598569AEFCFAE
:100670001F920F920FB60F9211242F933F938F93D7
:100680009F93EF93FF93F8948091600090916100A5
:1006900020916800309169008217930728F4019631
:1006A00090936100809360002817390761F0789477
:1006B000FF91EF919F918F913F912F910F900FBEDE
:1006C0000F901F9018952F5F3F4F3093610020933C
:1006D000600080916A008430D1F0823010F0833065
:1006E00031F7929886E090E090936D0080936C00D3
:1006F00081E080936B0010926A0010927602109253
:100700007502109278021092770215BCD0CF929A9F
:1007100085E080936A0015BC809177029091780201
:10072000FC01E159FE4F20812CB9559A0196909316
:1007300078028093770280916A00CFCF1F920F9248
:100740000FB60F921124EF92FF920F931F932F93E6
:100750003F934F935F936F937F938F939F93AF9349
:10076000BF93EF93FF93F89424B135B197B181E033
:10077000892787B9369A389B7CC0AFE1B5E00DD2A6
:100780006659714B8109910928EE33E040E050E051
:10079000E8D112161306140615060CF0B1C03093FA
:1007A00065002093640080916B00811116C08091D8
:1007B000660090916700883C910508F491C0809193
:1007C000660090916700893E934008F49CC088EED3
:1007D00093E0909363008093620080916400909115
:1007E00065002091620030916300281B390B8091D5
:1007F000790290917A0242E4489FB001499F700DBE
:10080000781B112448EC429FC001439F900D112496
:10081000860F971F092E000CAA0BBB0B40917B0281
:1008200050917C0260917D0270917E027C018D016D
:10083000E40EF51E061F171FC801B701E0927B02E8
:10084000F0927C0200937D0210937E0230937A0234
:100850002093790260320FEB700702E08007910568
:1008600074F597FD42C028EE33E040E050E079D1C6
:1008700034C0A2E3B4E091D16754714F8F4F9F4FC2
:1008800028EE33E040E050E04AD1309367002093F7
:1008900066007894FF91EF91BF91AF919F918F91F6
:1008A0007F916F915F914F913F912F911F910F9188
:1008B000FF90EF900F900FBE0F901F90189580E261
:1008C0009FEBA2E0B0E080937B0290937C02A09328
:1008D0007D02B0937E0224EB30E03BBD2ABDD9CF30
:1008E000109263001092620078CF10927B021092F7
:1008F0007C0210927D0210927E0220E030E0EDCF6B
:1009000020E030E04CCF2091660030916700285CF9
:100910003109A8EEB3E041D120E233E040E050E0FD
:10092000FED0309363002093620057CF84B380637E
:1009300084BB82B3806E82BBC09A80E487B98FE8A3
:1009400086B9369AC19A1DBC1CBC1BBC1ABC80E27D
:1009500093E097BD86BD82EC8FBD89E18EBDB99ACB
:1009600088E18AB98EE080BD83E389B910BC579ACB
:100970008A9A9298929886E090E090936D00809386
:100980006C0081E080936B0010926A0010927602F6
:1009900010927502109278021092770210927A02E9
:1009A0001092790210927B0210927C0210927D02CA
:1009B00010927E027894812C912C54018394609142
:1009C0006B00DD24D394A8EEEA2EA3E0FA2EB0E16A
:1009D000CB2E70916A007723F1F16623E1F172303A
:1009E00009F49BC08091660090916700909370021B
:1009F00080936F02809164009091650090937202E1
:100A0000809371028091730290917402883E23E07A
:100A1000920708F07DC0909363008093620060911C
:100A20006B00662309F46AC0AD982FEF821A920A10
:100A3000A20AB20A80E5881683EC9806A104B104E4
:100A400041F685B38C2585BB812C912C5401709186
:100A50006A007111C2CF30B390B380B326B39295C0
:100A60009695969593709D259170C92F90E0D92FFA
:100A7000FE01EE0FFF1F082E000C990B809590953C
:100A80008827990F881F9927880F991F880F991F0A
:100A9000AF01482B592B932F9295969597709D25D2
:100AA000092F017010E0CA01802B912B21702D2598
:100AB00030E0220F331F220F331F220F331F822BF0
:100AC000932B282F8617B1F01092630010926200CA
:100AD00010927A021092790210927B0210927C029C
:100AE00010927D0210927E02109274021092730294
:100AF00080936B00211173CF60916B008091660031
:100B0000909167008639910508F08ECFAD9A8DCF10
:100B1000F0926300E092620082CF2CDB63CFA1E20F
:100B20001A2EAA1BBB1BFD010DC0AA1FBB1FEE1F67
:100B3000FF1FA217B307E407F50720F0A21BB30BB2
:100B4000E40BF50B661F771F881F991F1A9469F72E
:100B500060957095809590959B01AC01BD01CF018A
:100B60000895052E97FB16F400940FD057FD05D07D
:100B7000D6DF07FC02D046F408C05095409530956A
:100B800021953F4F4F4F5F4F0895909580957095F9
:100B900061957F4F8F4F9F4F0895A29FB001B39FE4
:100BA000C001A39F01D0B29F700D811D1124911D22
:060BB0000895F894FFCF48
:020BB60001003C
:00000001FF
